:100000000C9446000C9465000C9465000C946500FB
:100010000C9465000C9465000C9465000C946500CC
:100020000C9465000C9465000C9465000C946500BC
:100030000C9465000C9465000C9465000C946500AC
:100040000C9465000C9465000C946D000C94650094
:100050000C9465000C9465000C9465000C9465008C
:100060000C9465000C9465000C9465000C9465007C
:100070000C9465000C9465000C9465000C9465006C
:100080000C9465000C9465000C94650011241FBE4F
:10009000CFEFD0E1DEBFCDBF21E0A4E1B1E001C0F0
:1000A0001D92A038B207E1F711E0A0E0B1E0E6E16F
:1000B000FBE000E00BBF02C007900D92A431B10736
:1000C000D9F70E949E000C9489050C9400005D9B5A
:1000D000FECF8CB990E080E008951F920F920FB68A
:1000E0000F9211240BB60F928F939F93EF93FF9370
:1000F0008CB1E09179018A3011F08D30A1F4F0E0FB
:10010000EB5EFE4F10821092790181E08093140122
:10011000FF91EF919F918F910F900BBE0F900FBEAB
:100120000F901F901895E33698F791E09E0F9093EB
:100130007901F0E0EB5EFE4F8083EACFCF93DF934F
:10014000CDB7DEB72E970FB6F894DEBF0FBECDBF8A
:100150008FEF8ABB109290008FEC89B9599A549A0C
:10016000539A579A7894FE0131968EE0DF011D92E2
:100170008A95E9F782E08C8387E690E09A87898701
:10018000F0937D01E0937C0178948E9A8F988EB5E0
:1001900085608EBD00E011E09798B5E0BA95F1F763
:1001A0000000969A25E32A95F1F7000096981DBC69
:1001B0001CBC879B4FC01DBC1CBC879B07C08CB55B
:1001C0009DB5893E9D4FC8F31DBC1CBC6CB57DB56B
:1001D00090E080E00E94D30120E034E244E759E45B
:1001E0000E94610220E030E040E854E40E94610295
:1001F00020E034E244E75BE40E94320120E030E09A
:1002000048E652E40E9432010E94A4011F926F93BB
:100210001F930F930E94CE022FEF89E698E12150A1
:1002200080409040E1F700C00000809114010F90E1
:100230000F900F900F90813009F0AECF1092140103
:10024000E5E1F1E08191882309F4A6CF5D9BFECF23
:100250008CB9F8CF8CB59DB5893E9D4F08F4A9CFD8
:1002600060E0D4CF0E9446010C9427020E94200235
:1002700058F00E94190240F029F45F3F29F00C94D5
:10028000100251110C945B020C9416020E94380269
:1002900068F39923B1F3552391F3951B550BBB27B5
:1002A000AA2762177307840738F09F5F5F4F220FFA
:1002B000331F441FAA1FA9F335D00E2E3AF0E0E8F1
:1002C00032D091505040E695001CCAF72BD0FE2F3B
:1002D00029D0660F771F881FBB1F261737074807CF
:1002E000AB07B0E809F0BB0B802DBF01FF27935887
:1002F0005F4F3AF09E3F510578F00C9410020C9439
:100300005B025F3FE4F3983ED4F38695779567955B
:10031000B795F7959F5FC9F7880F911D96958795BB
:1003200097F90895E1E0660F771F881FBB1F6217DA
:1003300073078407BA0720F0621B730B840BBA0B98
:10034000EE1F88F7E09508950E94400288F09F57BD
:1003500098F0B92F9927B751B0F0E1F0660F771FE9
:10036000881F991F1AF0BA95C9F714C0B13091F0DF
:100370000E945A02B1E008950C945A02672F782F18
:100380008827B85F39F0B93FCCF3869577956795A4
:10039000B395D9F73EF490958095709561957F4F10
:1003A0008F4F9F4F0895E89409C097FB3EF49095B6
:1003B0008095709561957F4F8F4F9F4F9923A9F03E
:1003C000F92F96E9BB279395F695879577956795CD
:1003D000B795F111F8CFFAF4BB0F11F460FF1BC011
:1003E0006F5F7F4F8F4F9F4F16C0882311F096E9A4
:1003F00011C0772321F09EE8872F762F05C0662352
:1004000071F096E8862F70E060E02AF09A95660F0A
:10041000771F881FDAF7880F9695879597F90895C3
:1004200097F99F6780E870E060E008959FEF80ECA7
:10043000089500240A94161617061806090608954A
:1004400000240A9412161306140605060895092EB0
:100450000394000C11F4882352F0BB0F40F4BF2B1F
:1004600011F460FF04C06F5F7F4F8F4F9F4F08955F
:1004700057FD9058440F551F59F05F3F71F0479555
:10048000880F97FB991F61F09F3F79F0879508953A
:10049000121613061406551FF2CF4695F1DF08C059
:1004A000161617061806991FF1CF86957105610576
:1004B00008940895E894BB2766277727CB0197F91E
:1004C00008950E9474020C9427020E94190238F0C9
:1004D0000E94200220F0952311F00C9410020C943D
:1004E000160211240C945B020E94380270F3959F4F
:1004F000C1F3950F50E0551F629FF001729FBB271B
:10050000F00DB11D639FAA27F00DB11DAA1F649FB6
:100510006627B00DA11D661F829F2227B00DA11D69
:10052000621F739FB00DA11D621F839FA00D611DEF
:10053000221F749F3327A00D611D231F849F600D10
:10054000211D822F762F6A2F11249F5750409AF039
:10055000F1F088234AF0EE0FFF1FBB1F661F771FC5
:10056000881F91505040A9F79E3F510580F00C9490
:1005700010020C945B025F3FE4F3983ED4F386953F
:1005800077956795B795F795E7959F5FC1F7FE2B30
:10059000880F911D9695879597F90895CF93DF93CE
:1005A000CDB7DEB7AE014B5F5F4FFA01619171913C
:1005B000AF0180917C0190917D010E94E202DF9168
:1005C000CF9108952F923F924F925F926F927F92B8
:1005D0008F929F92AF92BF92CF92DF92EF92FF9253
:1005E0000F931F93CF93DF93CDB7DEB72B970FB643
:1005F000F894DEBF0FBECDBF7C013B018A01FC0138
:1006000017821682838181FFDDC1CE0101965C01D4
:10061000F7019381F30193FD859193FF81913F0150
:10062000882309F453C1853239F493FD859193FFF2
:1006300081913F01853229F4B70190E00E94FB04CB
:10064000E7CF912C212C312CFFE1F31538F08B32C0
:1006500011F190F4803209F1833229F137FC3CC06A
:1006600020ED280F2A3050F536FE20C08AE0989EF3
:10067000200D1124922E06C08D3291F0803371F737
:10068000689430F8F30193FD859193FF81913F01C8
:100690008111DACF21C0689431F8689432F8F2CF32
:1006A000689433F8EFCF689434F8ECCFEAE02E9EEC
:1006B000200D1124222E689435F8E4CF8E3229F4CF
:1006C00036FC04C1689436F8DDCF8C3619F4689492
:1006D00037F8D8CF8836B1F2982F9F7D9554933054
:1006E000E0F08336A1F18337C1F1833509F063C0AF
:1006F0002801F2E04F0E511CF801C080D180692D15
:1007000070E036FC02C06FEF7FEFC6010E94E50487
:100710004C01689437F882010AC00C5F1F4FFFE359
:10072000F98388248394912C6501E89437F833FE8B
:100730002DC0522C8114910471F5552009F468CF15
:10074000B70180E290E00E94FB045A94F6CFF801D2
:10075000808189830E5F1F4FE4CF2801F2E04F0EA6
:10076000511CF801C080D180692D70E036FC02C0B8
:100770006FEF7FEFC6010E94F0044C018201D5CFDC
:10078000B70180E290E00E94FB042A942814190427
:1007900009F0B0F7CECFF60137FC859137FE819195
:1007A0006F01B70190E00E94FB0451105A94F1E0F0
:1007B0008F1A9108BFCF843619F0893609F077C0B7
:1007C000F80137FE6BC060817181828193810C5F7B
:1007D0001F4FF32DFF763F2E97FF09C09095809510
:1007E000709561957F4F8F4F9F4F689437F82AE03F
:1007F00030E0A5010E942B05C82ECA188C2C432C72
:1008000036FE0CC0E89440F8C91440F434FE05C02C
:1008100032FC03C0F32DFE7E4F2E892C44FEAAC06D
:10082000FE01EC0DF11D8081803309F09CC0242D68
:10083000297E422E842D8870582E43FCAAC040FE8B
:10084000A4C09C2C821418F42C0C922C981844FEF2
:10085000A6C0B70180E390E00E94FB0442FE09C0FD
:1008600088E790E041FE02C088E590E0B7010E9471
:10087000FB04C91408F49FC0CA94D12C9FEFC91A75
:10088000D90ACA0CDB1CF60182916F01B70190E016
:100890000E94FB04AC14BD04B1F74FCF608171819D
:1008A000072E000C880B990B0E5F1F4F92CFD32C95
:1008B000E894D4F82AE030E08537E1F1232D297F50
:1008C000D22E8F36A9F1F0F4883551F1F7018681E7
:1008D00097812B960FB6F894DEBF0FBECDBFDF9188
:1008E000CF911F910F91FF90EF90DF90CF90BF902D
:1008F000AF909F908F907F906F905F904F903F90C0
:100900002F900895803749F0883701F7D4FE02C050
:100910006894D2F820E130E00DC06894D4F8F6CFA6
:1009200034FE03C0822F8660D82E20E132E002C060
:1009300028E030E0F801D7FE0FC06081718182812C
:1009400093810C5F1F4FA5010E942B05C82ECA186A
:100950003D2CE89437F852CF6081718190E080E0BF
:100960000E5F1F4FF0CF42FC02C0839463CF83948D
:10097000839460CF842D867809F45CCFF6CFB701DD
:1009800080E290E00E94FB0483948214C0F3512C17
:100990005ECF522C5818821408F459CFF8CF842D0A
:1009A000867809F466CF8BE241FE80E247FC8DE257
:1009B000B70190E05CCFB70180E390E00E94FB04B8
:1009C0009A9457CF8FEF9FEF84CFFC010590615031
:1009D00070400110D8F7809590958E0F9F1F089555
:1009E000FC016150704001900110D8F780959095FE
:1009F0008E0F9F1F08950F931F93CF93DF93182F90
:100A0000092FEB018B8181FD09C01FEF0FEF812FB3
:100A1000902FDF91CF911F910F91089582FF14C005
:100A20002E813F818C819D81281739073CF4E88114
:100A3000F981CF0101969983888310838E819F81EC
:100A400001969F838E83E3CFE885F985812F0995F1
:100A5000892BA1F3DACFFA01AA27283051F12031EE
:100A600081F1E8946F936E7F6E5F7F4F8F4F9F4F42
:100A7000AF4FB1E03ED0B4E03CD0670F781F891F84
:100A80009A1FA11D680F791F8A1F911DA11D6A0F52
:100A9000711D811D911DA11D20D009F468943F9105
:100AA0002AE0269F11243019305D3193DEF6CF0104
:100AB0000895462F4770405D4193B3E00FD0C9F7CA
:100AC000F6CF462F4F70405D4A3318F0495D31FD37
:100AD0004052419302D0A9F7EACFB4E0A69597958A
:100AE000879577956795BA95C9F700976105710560
:100AF00008959B01AC010A2E0694579547953795AA
:100B00002795BA95C9F7620F731F841F951FA01D03
:060B10000895F894FFCFE8
:100B160064697374616E6365203A20256420636D91
:040B26000D0A0000B4
:00000001FF
