:100000000C9446000C9465000C9465000C946500FB
:100010000C9465000C9465000C9465000C946500CC
:100020000C9465000C9465000C9465000C946500BC
:100030000C9465000C9465000C9465000C946500AC
:100040000C9465000C9465000C94D5000C9465002C
:100050000C9465000C9465000C9465000C9465008C
:100060000C9465000C9465000C9465000C9465007C
:100070000C9465000C9465000C947C000C94650055
:100080000C9465000C9465000C94650011241FBE4F
:10009000CFEFD0E1DEBFCDBF11E0A0E0B1E0EAE8F4
:1000A000F2E000E00BBF02C007900D92A032B10752
:1000B000D9F721E0A0E2B1E001C01D92A538B20756
:1000C000E1F70E9430010C9443010C940000FC0104
:1000D0009191911101C0089580919B0085FFFCCF03
:1000E00090939C00F5CFFC019191911101C008956E
:1000F0005D9BFECF9CB9F8CF1F920F920FB60F9267
:1001000011240BB60F922F933F934F935F936F93EE
:100110007F938F939F93AF93BF93EF93FF938091C0
:100120009C005D9BFECF8CB98D3011F08A30C9F4F4
:10013000E0918401F0E0E05EFE4F10828091840146
:10014000882361F080E091E00E94670080E291E006
:100150000E9467008DE191E00E9467001092840187
:100160000EC0909184019336E8F4E091840191E00F
:100170009E0F90938401F0E0E05EFE4F8083FF913C
:10018000EF91BF91AF919F918F917F916F915F910F
:100190004F913F912F910F900BBE0F900FBE0F907C
:1001A0001F9018958EE091E0D7CF1F920F920FB657
:1001B0000F9211240BB60F922F933F934F935F939F
:1001C0006F937F938F939F93AF93BF93EF93FF931F
:1001D0008CB190919B0095FFFCCF80939C008D305B
:1001E00011F08A30C9F4E0918401F0E0E05EFE4F46
:1001F000108280918401882361F080E091E00E9468
:10020000730080E291E00E9473008DE191E00E9412
:100210007300109284010EC0909184019336E8F42B
:10022000E091840191E09E0F90938401F0E0E05E04
:10023000FE4F8083FF91EF91BF91AF919F918F917E
:100240007F916F915F914F913F912F910F900BBED6
:100250000F900FBE0F901F9018958EE091E0D7CFB2
:100260001092900027E629B998E99AB986E0809320
:100270009500109298002093990090939A00809393
:0A0280009D007894FFCFF894FFCFA3
:10028A00596F7520456E74657265643A2000496E2F
:10029A0070757420546F6F204C6F6E67210D0A00C1
:00000001FF
