:100000000C9446000C9465000C9465000C946500FB
:100010000C9465000C9465000C9465000C946500CC
:100020000C9465000C9465000C9465000C946500BC
:100030000C9465000C9465000C9465000C946500AC
:100040000C9465000C9465000C942C010C946500D4
:100050000C9465000C9465000C9465000C9465008C
:100060000C9465000C9465000C9465000C9465007C
:100070000C9465000C9465000C94D3000C946500FE
:100080000C9465000C9465000C94650011241FBE4F
:10009000CFEFD0E1DEBFCDBF11E0A0E0B1E0E4EDF5
:1000A000F9E000E00BBF02C007900D92AE33B1073C
:1000B000D9F721E0AEE3B1E001C01D92A63DB20741
:1000C000E1F70E9487010C94E8040C94000094EA84
:1000D000909374009091740097FFFCCF9EE49093EE
:1000E000730094E8909374009091740097FFFCCF94
:1000F0008093730084E8809374008091740087FF7C
:10010000FCCF84E9809374000895FC0191919111D2
:1001100001C0089580919B0085FFFCCF90939C00C7
:10012000F5CFFC019191911101C008955D9BFECF27
:100130009CB9F8CFCF93C0917001CB7F8C2F0E94D8
:1001400067008C2F84600E946700C09370018C2F21
:100150000E9467008FEF98E10197F1F700C000005F
:10016000CF910895CF93DF93C82F909170019F7026
:10017000807F982B909370010E949A00809170016B
:100180008F7090E1C99FE00111248C2B8093700146
:10019000DF91CF910C949A00909170019C7F909385
:1001A00070010C94B2001F920F920FB60F9211249F
:1001B0000BB60F922F933F934F935F936F937F9361
:1001C0008F939F93AF93BF93EF93FF9380919C0086
:1001D0005D9BFECF8CB98D3011F08A30C9F4E0916F
:1001E000D501F0E0EF58FE4F10828091D5018823B1
:1001F00061F080E091E00E94850081E791E00E943B
:1002000085008DE191E00E9485001092D5010EC01D
:100210009091D5019336E8F4E091D50191E09E0FDD
:100220009093D501F0E0EF58FE4F8083FF91EF915E
:10023000BF91AF919F918F917F916F915F914F91FE
:100240003F912F910F900BBE0F900FBE0F901F90FC
:1002500018958EE091E0D7CF1F920F920FB60F92B4
:1002600011240BB60F922F933F934F935F936F938D
:100270007F938F939F93AF93BF93EF93FF938CB133
:1002800090919B0095FFFCCF80939C008D3011F0E6
:100290008A30C9F4E091D501F0E0EF58FE4F1082AA
:1002A0008091D501882361F080E091E00E94910067
:1002B00081E791E00E9491008DE191E00E94910020
:1002C0001092D5010EC09091D5019336E8F4E091DB
:1002D000D50191E09E0F9093D501F0E0EF58FE4FCD
:1002E0008083FF91EF91BF91AF919F918F917F910B
:1002F0006F915F914F913F912F910F900BBE0F9097
:100300000FBE0F901F9018958EE091E0D7CF81B36C
:10031000836081BB88E4809370002FEF89EF90E0C9
:10032000215080409040E1F700C0000083E00E942F
:10033000CC008FE39CE90197F1F700C0000083E057
:100340000E94CC008FE99FE00197F1F700C0000008
:1003500083E00E94CC0082E00E94CC0088E20E94F0
:10036000CC0088E00E94CC0081E00E94CC0086E0B6
:100370000E94CC008CE00E94CC00809170018860CB
:10038000809370010E94670080E80E94CC00C0E06A
:10039000EC2FF0E0E05EFE4F808181112EC090E0F6
:1003A00080E0C1E3D1E00EE311E07C012FEFE21A1F
:1003B000F20A9F938F93DF93CF931F930F930E9423
:1003C000110280EC0E94CC000F900F900F900F90C4
:1003D0000F900F90D12CED2DF0E0E25CFE4F80816C
:1003E000811115C02FEF81EE94E0215080409040A4
:1003F000E1F700C00000C701D8CF909170019D7F48
:100400009160909370010E94B200CF5FC1CF909134
:1004100070019D7F9160909370010E94B200D3940F
:10042000DACF0F931F93CF93DF93CDB7DEB72E971D
:100430000FB6F894DEBF0FBECDBF0D891E8986E0D2
:100440008C831A8309838FEF9FE79E838D83AE0190
:10045000475E5F4F6F89788DCE0101960E94410201
:100460002F813885020F131FF80110822E960FB6C8
:10047000F894DEBF0FBECDBFDF91CF911F910F91DA
:1004800008952F923F924F925F926F927F928F9238
:100490009F92AF92BF92CF92DF92EF92FF920F9313
:1004A0001F93CF93DF93CDB7DEB72B970FB6F8949A
:1004B000DEBF0FBECDBF7C013B018A01FC0117826C
:1004C0001682838181FFDDC1CE0101965C01F701B7
:1004D0009381F30193FD859193FF81913F018823DF
:1004E00009F453C1853239F493FD859193FF8191CD
:1004F0003F01853229F4B70190E00E945A04E7CF0A
:10050000912C212C312CFFE1F31538F08B3211F1B5
:1005100090F4803209F1833229F137FC3CC020EDA0
:10052000280F2A3050F536FE20C08AE0989E200D14
:100530001124922E06C08D3291F0803371F76894A9
:1005400030F8F30193FD859193FF81913F01811173
:10055000DACF21C0689431F8689432F8F2CF689409
:1005600033F8EFCF689434F8ECCFEAE02E9E200DFC
:100570001124222E689435F8E4CF8E3229F436FC0B
:1005800004C1689436F8DDCF8C3619F4689437F8D6
:10059000D8CF8836B1F2982F9F7D95549330E0F0F4
:1005A0008336A1F18337C1F1833509F063C0280197
:1005B000F2E04F0E511CF801C080D180692D70E02F
:1005C00036FC02C06FEF7FEFC6010E9444044C016D
:1005D000689437F882010AC00C5F1F4FFFE3F9836C
:1005E00088248394912C6501E89437F833FE2DC05C
:1005F000522C8114910471F5552009F468CFB7018C
:1006000080E290E00E945A045A94F6CFF80180816B
:1006100089830E5F1F4FE4CF2801F2E04F0E511C7B
:10062000F801C080D180692D70E036FC02C06FEF08
:100630007FEFC6010E944F044C018201D5CFB70164
:1006400080E290E00E945A042A942814190409F0C8
:10065000B0F7CECFF60137FC859137FE81916F015F
:10066000B70190E00E945A0451105A94F1E08F1A99
:100670009108BFCF843619F0893609F077C0F801A8
:1006800037FE6BC060817181828193810C5F1F4F47
:10069000F32DFF763F2E97FF09C0909580957095BA
:1006A00061957F4F8F4F9F4F689437F82AE030E075
:1006B000A5010E948A04C82ECA188C2C432C36FE31
:1006C0000CC0E89440F8C91440F434FE05C032FC74
:1006D00003C0F32DFE7E4F2E892C44FEAAC0FE01DE
:1006E000EC0DF11D8081803309F09CC0242D297E02
:1006F000422E842D8870582E43FCAAC040FEA4C010
:100700009C2C821418F42C0C922C981844FEA6C031
:10071000B70180E390E00E945A0442FE09C088E7D6
:1007200090E041FE02C088E590E0B7010E945A04C3
:10073000C91408F49FC0CA94D12C9FEFC91AD90AD2
:10074000CA0CDB1CF60182916F01B70190E00E9498
:100750005A04AC14BD04B1F74FCF60817181072EEC
:10076000000C880B990B0E5F1F4F92CFD32CE8948F
:10077000D4F82AE030E08537E1F1232D297FD22E0D
:100780008F36A9F1F0F4883551F1F7018681978110
:100790002B960FB6F894DEBF0FBECDBFDF91CF9181
:1007A0001F910F91FF90EF90DF90CF90BF90AF908F
:1007B0009F908F907F906F905F904F903F902F9081
:1007C0000895803749F0883701F7D4FE02C0689455
:1007D000D2F820E130E00DC06894D4F8F6CF34FEB2
:1007E00003C0822F8660D82E20E132E002C028E0CC
:1007F00030E0F801D7FE0FC0608171818281938162
:100800000C5F1F4FA5010E948A04C82ECA183D2CF8
:10081000E89437F852CF6081718190E080E00E5FFC
:100820001F4FF0CF42FC02C0839463CF8394839424
:1008300060CF842D867809F45CCFF6CFB70180E2D3
:1008400090E00E945A0483948214C0F3512C5ECF2E
:10085000522C5818821408F459CFF8CF842D86787A
:1008600009F466CF8BE241FE80E247FC8DE2B701DE
:1008700090E05CCFB70180E390E00E945A049A9424
:1008800057CF8FEF9FEF84CFFC01059061507040F0
:100890000110D8F7809590958E0F9F1F0895FC0149
:1008A0006150704001900110D8F7809590958E0F9F
:1008B0009F1F08950F931F93CF93DF93182F092F36
:1008C000EB018B8181FD09C01FEF0FEF812F902F6E
:1008D000DF91CF911F910F91089582FF14C02E8157
:1008E0003F818C819D81281739073CF4E881F9818B
:1008F000CF0101969983888310838E819F81019611
:100900009F838E83E3CFE885F985812F0995892B15
:10091000A1F3DACFFA01AA27283051F1203181F171
:10092000E8946F936E7F6E5F7F4F8F4F9F4FAF4FF7
:10093000B1E03ED0B4E03CD0670F781F891F9A1F0A
:10094000A11D680F791F8A1F911DA11D6A0F711DBE
:10095000811D911DA11D20D009F468943F912AE0CA
:10096000269F11243019305D3193DEF6CF010895B2
:10097000462F4770405D4193B3E00FD0C9F7F6CFE3
:10098000462F4F70405D4A3318F0495D31FD4052AB
:10099000419302D0A9F7EACFB4E0A6959795879541
:1009A00077956795BA95C9F7009761057105089520
:1009B0009B01AC010A2E06945795479537952795CC
:1009C000BA95C9F7620F731F841F951FA01D089564
:0409D000F894FFCFC9
:1009D400596F7520456E74657265643A2000496EDE
:1009E40070757420546F6F204C6F6E67210D0A0070
:1009F40048656C6C6F2041546D65676131323861B4
:0E0A040000636F756E74203A20252D35640056
:00000001FF
